:020000040800F2
:10300000200E002009310008F33900083D3900087E
:10301000F1390008A7310008F1490008000000005C
:10302000000000000000000000000000B93E0008A1
:103030007536000800000000C13B00081D4500086F
:103040002331000823310008233100082331000810
:103050002331000823310008233100082331000800
:1030600023310008233100082331000823310008F0
:1030700023310008233100082331000823310008E0
:1030800023310008233100082331000823310008D0
:103090007949000823310008233100082331000852
:1030A00023310008233100082331000823310008B0
:1030B00023310008233100082331000823310008A0
:1030C0002331000823310008233100082331000890
:1030D000233100082331000821450008233100086E
:1030E0002331000823310008A947000823310008D4
:1030F00023310008DFF80CD000F018F80048004732
:103100007F4C0008200E00200648804706480047F4
:10311000FEE7FEE7FEE7FEE7FEE7FEE7FEE7FEE787
:10312000FEE7FEE71F450008F5300008064C074D96
:1031300006E0E06840F0010394E807009847103487
:10314000AC42F6D3FFF7DAFFD44D0008F44D000887
:1031500070B58C1810F8015B15F0070301D110F859
:10316000013B2A1106D110F8012B03E010F8016B86
:1031700001F8016B5B1EF9D12B0705D40023521E09
:103180000DD401F8013BFAE710F8013BCB1A921C71
:1031900003E013F8015B01F8015B521EF9D5A1426F
:1031A000D8D3002070BDFEE7C1B2000A40EA01207A
:1031B000704700002DE9F84F0020ADF80000DFF85F
:1031C00034A14BF6BF7648F280074A4D4A4C40F690
:1031D0008F7848F60F7BDFF824910AF1440A31E03A
:1031E0000888474A10F00F00107034D0454901EBB1
:1031F0008001D1F8002CADF80020BDF800201204A9
:103200000BD5D1F8002C02EA0802C1F8002C3E4987
:1032100001EB800050F8040C8047BDF80000000668
:1032200010D537483749007801EB8001D1F8002CE0
:1032300002EA0B02C1F8002C344901EB800050F87F
:10324000040C8047DAF800004946A9F800000004A1
:10325000C6D4BDE8F88F28682080208800F03000B0
:103260006080208800F4405020802868304080F43E
:10327000005080F02000384328600888C006286885
:1032800015D400EA0B00286000F05AFB26E02188E4
:10329000890401D580F400506188C90626D461886C
:1032A000890601D580F0200038432860D1E7ADF8C9
:1032B0000000BDF80000000506D5286800EA0800F7
:1032C000286000F001FF09E0BDF800000004B9D556
:1032D000286800EA0800286000F03EFC2868218881
:1032E0003040C904D3D580F48050D0E780F010007E
:1032F000D5E70000005C0040360100203A000020C5
:103300002401002000500040600000204400002004
:10331000810008480844D0F8001C490409D5D0F8B9
:10332000001C48F68F7211404CF280021143C0F825
:10333000001C704700500040810008480844D0F845
:10334000001C490609D5D0F8001C48F68F721140C0
:1033500048F2C0021143C0F8001C70470050004002
:10336000810006480144D1F8000C48F68F621040F5
:1033700048F280021043C1F8000C70470050004032
:103380002DE9F047DFF89480254F4FF03009D8F849
:10339000001001F11005088A0E7A08B9042E04D035
:1033A000AC88A04215D8042614E01E4801780129F3
:1033B00003D00726102038802BE01B4A002112681A
:1033C0001A4B120403EBD2325160A7F8009001703F
:1033D0001FE00226844200D90446A9682046884797
:1033E0008246002000F048FA01462246504601F08D
:1033F00001FB2146002000F005FE2888001B2880E4
:10340000688820446880A7F8009009494FF440502C
:103410000880D8F800000672BDE8F0872801002077
:103420003801002020010020505C00400060004076
:10343000360100202DE9F047224EDFF88C8030273E
:10344000356835F8100FA968A9B100B3AC8884427B
:1034500000D904462046884781462888001B2880DA
:10346000688820446880002000F0E6F90146224682
:10347000484600F095FB288848B114494FF4405065
:1034800008800021084600F0BDFDA8F800702888DB
:10349000A988884201D3032001E020B105203168CA
:1034A0000872BDE8F08731680620087208490020DC
:1034B0000968084A090402EBD1314860A8F8007095
:1034C000EFE700002801002038010020360100202D
:1034D000505C004000600040F8B55D4C5D4D092631
:1034E0002068002729684278062A05D0AAB1082A50
:1034F0004DD00A2A50D06BE00278520668D180780D
:10350000012804D0022804D0032804D060E0C9694F
:1035100056E0096A54E0496A52E04288B2BBC28868
:10352000022A55D102798ABB0278530601D18388D9
:1035300033B102F07F02012A04D0022A0CD047E006
:1035400045493DE08A69407900219047F0B92068FB
:10355000807A0028F4D13BE0417901F00F0001F0BE
:1035600070020B063D4901EB8001D1F8001C03D528
:10357000C1F30111090102E0C1F301310903384B24
:103580001B78834224D90AB90029D9D120E00078D8
:1035900040061DD1334913E0027802F07F02012A70
:1035A00016D1827AA2B1428892B9027982B9C288D0
:1035B000012A0DD18A6940790021904740B92A49F2
:1035C00031B120684782816100208847002006E0F1
:1035D00029682068096940788847032813D0216842
:1035E0000A8AA2F57F43FF3B0BD002280ED06AB1B6
:1035F0000878000626D5C888009082420AD9088239
:1036000018E00E72F8BD20680672F8BD4FF0080091
:103610000872F8BD0ED22868144B90F82C00824234
:1036200001D21F7006E0B2FBF0F400FB142008B9D1
:1036300001201870286890F82C008882BDE8F840B6
:10364000FFF79EBE03200872094900030880F8BDF9
:10365000280100202C010020994200080050004061
:10366000E80000202D4200087142000820010020DF
:10367000360100207047000070B514480178012918
:103680000FD1134C0026236853B11249402B086810
:1036900082B207D940304025403B0860236005E0F6
:1036A000067070BD184408609DB226600A48C021AB
:1036B00010442A4601F09EF92946012000F0A2FCA0
:1036C000BDE87040012000F0C3BC000000000020F5
:1036D0000C00002008000020A401002010B50649BD
:1036E000032001F05BF9C1B2034801F069F9BDE8BC
:1036F0001040032000F064BCA409002001490860C8
:10370000704700001404014030B51A4983790268FB
:1037100053B30B6893430B600A1D13680468A343FB
:10372000136002790A441368046823431360114A42
:10373000083213680468A3431360131D1C680568EE
:10374000AC431C604479102C05D021440A68006801
:1037500002430A6030BD1168046821431160196892
:1037600000680143196030BD007908440168914345
:10377000016030BD00040140F0B50023012403279F
:103780000D6804FA03F21540954240D1D0F800C00C
:103790005E0007FA06F52CEA050CC0F800C091F8A7
:1037A00004C0D0F800E00CFA06FC4CEA0E0CC0F89D
:1037B00000C091F804C0BCF1010F02D0BCF1020FAF
:1037C0001DD1D0F808C02CEA050CC0F808C091F84B
:1037D00005C0D0F808E00CFA06FC4CEA0E0CC0F864
:1037E00008C0B0F804C02CEA020CA0F804C0B0F87D
:1037F00004C08A799A404CEA020CA0F804C0C2685E
:10380000AA43C260CA79C568B2402A43C2605B1C41
:10381000102BB5D3F0BD4B07DB0E9A40C90810B58D
:1038200000EB8100016A0F249C40A1430162016A00
:103830001143016210BD00000549096889B201EB1E
:10384000C000044901EB4000008980B270470000CD
:10385000505C0040006000400549096889B201EBF6
:10386000C000044901EB40008089C0F309007047A3
:10387000505C0040006000400449096889B201EBD7
:10388000C000034931F8100080B27047505C00401E
:1038900000600040094810B5D0E91414406E0818C3
:1038A0000BD00822064900F079F805492046042289
:1038B000BDE81040103100F071B810BD0000F81FD5
:1038C0001A00002070B51B48017801290AD08268CF
:1038D0000021B2F5006F00D18160D0E9012393424D
:1038E00001D1017070BD02D9C3F5006201E0A2EB05
:1038F00003021446C260402A9AB205D940254033DB
:10390000403CC0E9023403E02344C0E90231A5B2DF
:10391000012101700848C02110442A4601F06AF8CC
:103920002946012000F06EFBBDE87040012000F048
:103930008FBB000000000020A4010020FEE7000073
:1039400010B5134C2068017A022904D0042902D052
:10395000062905D015E0FFF713FD2068007A11E075
:103960004178052909D10178490606D1C07800F0CF
:10397000BBFA08480068006A80470748006880680A
:103980008047082021680872BDE8104000F01AB98D
:1039900028010020300100202C010020F0B5002378
:1039A0000A24302537261F4611E000BFB4EB107FF4
:1039B00002D905EB107C01E006EB107C01F813C086
:1039C00001EB430C00015B1C8CF80170DBB29342ED
:1039D000ECD3F0BD0448817A044809B1052100E028
:1039E0000121016000F09BBD040A002010010020AD
:1039F000FEE770477047000070B50F23C478017868
:103A00000122F4B1144C2468457804F4E064C4F550
:103A1000E064240AC4F10406E3408478B5401C4005
:103A20002C4301F1E021230181F80034007800F0FB
:103A30001F018A404009800000F1E020C0F8002109
:103A400070BD01F01F0082404809800000F1E020B5
:103A5000C0F8802170BD00000CED00E00249084371
:103A600002490860704700000000FA050CED00E014
:103A7000024A1140014302480160704780FFFF1F66
:103A800008ED00E070B52F4D2868017844784A06AB
:103A900006D001F07F00012828D002282BD035E085
:103AA000092C06D0052C07D0032C0ED0012C14D0E5
:103AB0002CE000F03BFC28E0C1787F292ED88178EB
:103AC00061BB818851BB807A27E0C17801291DD173
:103AD0008088D8B900F046FC17E0C178012915D1DB
:103AE000818899B9407A80060AD40FE00B2C0DD159
:103AF00000F08EFC09E0012C02D0032C03D005E07D
:103B000000F016FB01E000F03FFC58B10E492046E2
:103B1000096849698847032802D018B108200DE0D8
:103B200009200BE0094A062000211268084B120404
:103B300003EBD2325160074A3021118029680872A4
:103B400070BD0000280100202C010020505C0040C6
:103B5000006000403801002010B50F4C2068007A4A
:103B6000022811D004280FD0032804D0052802D041
:103B7000072805D008E0FFF75DFC2068007A04E024
:103B800006480068C0688047082021680872BDE8C0
:103B9000104000F017B80000280100202C01002080
:103BA000064B521C520803EB410105D031F8043B8F
:103BB00020F8023B521EF9D170470000006000401F
:103BC000704700000C4810B590F82C10002000F051
:103BD000BFF90A480068007A082802D0092809D0ED
:103BE00006E007494FF480500880064910200880FD
:103BF000002010BD012010BD9800002028010020E9
:103C0000360100203801002010B5012000F0C8FD69
:103C10000648012101600021054A0160031D196069
:103C20004FF4E05111800160002010BD405C004065
:103C300034010020044A0029116801D0014300E04A
:103C400081431160704700001C380240044A00297B
:103C5000116801D0014300E081431160704700000A
:103C600024380240044A0029116801D0014300E0D1
:103C700081431160704700002038024030B5254A6A
:103C80001168A2F1040411F00C034FF4004105D0B7
:103C9000042B09D0082B09D00C2B09D02368C3F3BF
:103CA00042335B1C994018E01B4916E01B4914E0A5
:103CB0001168136801F47011194C03F4400304EB0C
:103CC00091410978012404EB9353146814F4803F64
:103CD0001DD0124C6143B1FBF3F1016011680F2359
:103CE00003EA11110E4B09335C5C0168E14041604D
:103CF0001468072505EA14241C5D21FA04F4846085
:103D0000126805EAD2229A5CD140C16030BD024CF3
:103D1000E0E70000083802400024F40000127A00B6
:103D20003A0100202DE9F041214C072800D02070F5
:103D300022781F4D0627052104261E48062A0BD28D
:103D4000DFE802F0030C11161E27686810B121701D
:103D5000BDE8F08100F030F82770F9E700F02CF8AA
:103D60002670012022E00220607003202070EFE71F
:103D70006078401E607060780028E9D12670E7E71F
:103D8000026892B242F01002026021700A20607054
:103D9000DEE76178491E617061780029D8D1016839
:103DA00089B221F010010160277000206860CFE720
:103DB00018010020405C004010B5064C206880B21D
:103DC00020F004002060FFF705FE4FF43F40206024
:103DD00010BD0000405C004007480068052809D17C
:103DE00006480168491C0160062903D100210160D1
:103DF000FFF768BD7047000010010020340000206C
:103E00002DE9FC410F46044629492948083150F85C
:103E1000240051F8241008430121FFF70BFF244828
:103E20000121083850F82400FFF710FF2048214DE9
:103E30003038025D001F015D55F82400FFF7EBFCF0
:103E40001B4805F108062E38025D001F015D56F87B
:103E50002400FFF7E0FC164869462C3830F81400BF
:103E6000009002208DF8040003208DF8050000204A
:103E70008DF8060001208DF8070055F82400FFF7A3
:103E80007BFC0B486946283830F81400009056F83F
:103E90002400FFF771FC083D394655F8240000F076
:103EA000FFFB55F82400012100F052FBBDE8FC8126
:103EB000844D00085C01002070470000054900287F
:103EC000486802D040F0010001E020F001004860A5
:103ED0007047000000000140024920F00700086020
:103EE00070470000505C0040F0B50E490E4D48F69A
:103EF0008F770B78002148F2800C0BE0CEB205EBF7
:103F00008604D4F8002C3A40324342EA0C02C4F84A
:103F1000002C491C9942F1D3044940F0800008600C
:103F2000F0BD0000E8000020005000404C5C004064
:103F3000054A21F00101126892B202EBC000034A67
:103F400002EB400081607047505C00400060004020
:103F50000D4A12683E2992B202EBC0000B4A02EBF6
:103F6000400209D94809C90601D1401E80B24FF468
:103F7000004141EA802004E04808C90700D0401C05
:103F80008002106070470000505C00400C600040F0
:103F900082000A480244D2F8000C4BF68F73184096
:103FA000CB0401D580F48050890401D580F4005001
:103FB00048F280010843C2F8000C704700500040EE
:103FC000810007480144D1F8000C4BF68F72104075
:103FD00080F4405048F280021043C1F8000C704752
:103FE00000500040054A21F00101126892B202EB34
:103FF000C000034A42F8101070470000505C0040B7
:1040000000600040044A126892B202EBC000034A0A
:1040100002EB400041607047505C0040006000408F
:1040200082000A480244D2F8000C48F6BF731840D8
:10403000CB0601D580F01000890601D580F0200064
:1040400048F280010843C2F8000C7047005000405D
:10405000810007480144D1F8000C48F6BF721040B7
:1040600080F0300048F280021043C1F8000C704725
:1040700000500040820005480244D2F8000C48F687
:104080008F1318400843C2F8000C704700500040DE
:1040900010B501210846FFF7E5FD4FF480242046C6
:1040A000FFF72CFB054908200C604871012088713E
:1040B000BDE810400846FFF727BB000010000020B5
:1040C0000121C805FFF7C2BD70B516480068174D3D
:1040D0000004C10B14480144098989B200EB410472
:1040E0002868017A09290FD0217801706178417020
:1040F000A088FFF759F8296848802089FFF754F80D
:1041000029688880A089C880286801210172C08838
:1041100028B1FFF7E1F9BDE87040FFF753BDFFF7A5
:10412000B1FCF8E7505C004000600040280100202E
:104130002DE9F04138480068017811F07F0102D084
:10414000022905D066E0417A01F0DF0141724EE0BC
:10415000418800295ED10179F1BB4179304D21F0D0
:1041600080040A0605EB84022C4BD2F8002C03D500
:10417000C2F30112120102E0C2F3013212031E78EF
:104180002346A64246D93AB3807A28B308064FEAB6
:1041900084000ED52844D0F8000CC0F3011001288B
:1041A00021D11846FFF7C8F820463021FFF738FF25
:1041B00019E04619D6F8000CC0F30130012812D1DD
:1041C0004BF68F7748F28008A4B11846FFF7A0F8A5
:1041D000D6F8000C384000E01CE080F4405040EA83
:1041E0000800C6F8000C0F480068406980470020AE
:1041F000BDE8F0810C4890F82C100020FFF7A8FED5
:10420000D5F8000C384080F4405040EA0800C5F86A
:10421000000CE8E70220EBE728010020E80000207E
:1042200000500040300100209800002010B5074CDD
:1042300030B1074800680068804720680A3010BD28
:10424000216801200882002010BD00002801002004
:1042500030010020054A13685A8A10B108681044DA
:1042600070478888801A1882002070472801002033
:1042700010B5074C30B10748006880688047206857
:104280000C3010BD216801200882002010BD000004
:104290002801002030010020204910B5096860B1D4
:1042A0001F48002202800A7853060AD002F07F02DB
:1042B000012A16D0022A16D001E00220088200202E
:1042C00010BD497A8A06027802D542F0020201E066
:1042D00002F0FD0249060270D1B211D401F0FE01D4
:1042E00010E00F4810BD4A79110713060D4A02EB82
:1042F0009161D1F8001C07D5C1F3011106E00178E6
:1043000041F00101017003E0C1F301310129F6D050
:104310000548006800698047E3E7000028010020A5
:104320002201002000500040300100200A4810B552
:1043300000680A4AC1785278914203D882780AB953
:1043400082880AB1022010BD817205480068406869
:104350008047002010BD000028010020E800002058
:1043600030010020064810B50068417A41F0200174
:10437000417204480068C0698047002010BD0000F9
:10438000280100203001002070B51D481D4D036834
:10439000597921F0800005EB80000C06D0F8004C24
:1043A00021F0800203D5C4F30114240102E0C4F318
:1043B00001342403144D2D78954210D95A8872B9CE
:1043C0006CB19A7A5AB10906D0F8001C48F2800202
:1043D00007D548F6BF73194081F0100106E00220AE
:1043E00070BD4BF68F73194081F480511143C0F8B2
:1043F000001C0648006880698047002070BD0000EE
:104400002801002000500040E8000020300100207A
:1044100010B50E4C0E4A20681268C1789269407936
:10442000904721688A7A22B118B9087908B9887842
:1044300008B1022010BD07480068C06880472068A6
:104440004179C172C1780173002010BD280100209C
:104450002C01002030010020F8B52B4900200090ED
:104460000A682A4B2A4C92B203EB8005D5F8005C0F
:10447000ADB244F82050401C0828F5D342F48060C7
:10448000086040F00100086020F001050D601E4A40
:10449000121D10684005FCD54FF6FF30106000205B
:1044A00054F8206003EB8007B6B2C7F8006C401CDC
:1044B0000828F5D345F008000860086880B240F08D
:1044C00004000860134B18680090186820F003007F
:1044D00040F0010018601048046844F004040460CF
:1044E0001468E40401D430BF09E04EF6FF74146090
:1044F0000A6892B222F008020A6000991960016805
:1045000021F004010160F8BD405C00400050004013
:10451000E40900200070004010ED00E07047704793
:1045200010B50A4C40F22551204600F082F808B13F
:1045300000F010F90821204600F074F8002804D09B
:104540002046BDE8104000F0FDB810BD004400401A
:104550000029818902D041F4005101E021F4005189
:10456000818170471E4A10B513791E48002123B17E
:10457000012B04D0022B1CD104E0C18005E04FF4D4
:10458000405301E04FF40053C380537923B1012B12
:1045900004D0022B0DD104E0018105E04FF48063CB
:1045A00001E04FF4C06303819379072B0BD0082BF4
:1045B00003D000F019F8002010BD03891BB14FF49F
:1045C0008053838000E081801268026081810C2129
:1045D000418104490020FFF713FC012010BD0000B9
:1045E00080000020940100200C4810B54FF41651B3
:1045F000016000218180C1804FF4C062028181810D
:104600000C21418101460020FFF7FAFBBDE8104074
:10461000012240F22551024800F02AB894010020FE
:10462000004400400246002012880A4200D00120C7
:10463000704730B501F01F0201240025C1F3421379
:1046400004FA02F2012B0FD0022B0FD0838A4FEA1B
:1046500011210088134204FA01F400EA040001D099
:1046600000B10125284630BD8389F0E7038AEEE7D3
:1046700010B5C1F3421301F01F040121A140012B29
:1046800007D0022B07D01430002A026805D00A4355
:1046900004E00C30F8E71030F6E78A43026010BD02
:1046A0007FB50446008A0D4620F44051E88808434F
:1046B0002082A08941F20C618843A9882A8911438C
:1046C0006A8902431143A181A08A20F44071A8891C
:1046D0000843A0826846FFF7D1FA1948844201D105
:1046E000039800E00298A189090400EBC00101EBE6
:1046F0000010296801D5490000E08900B0FBF1F005
:104700006422B0FBF2F109010B096FF018056B434D
:1047100000EB8300A3891D044FF0320306D503EBA1
:10472000C000B0FBF2F000F0070005E003EB001062
:10473000B0FBF2F000F00F00084320817FBD0000C5
:10474000003801408088C0F308007047C1F30801B9
:104750008180704770B50E480F4D104C81790D481F
:10476000072902D0082905D008E0FFF7EBFF00F089
:104770007F0001E0FFF7E6FF616868546068401C55
:104780006060B0F5006F01D10020606070BD000076
:104790008000002000440040A40100200000002010
:1047A00000B10120FFF78ABB4FF48020FEF7A6BFBF
:1047B00006480549022201600A72064A0449C0E916
:1047C0000112086800470000040A002028010020A8
:1047D00098000020EC00002038B54FF4A060FFF7EF
:1047E0003DF914208DF8000002208DF8010000250D
:1047F0008DF8025001248DF803406846FFF7FCF85D
:104800002A208DF800008DF801508DF8034068468D
:10481000FFF7F2F826208DF800008DF80140684679
:10482000FFF7EAF838BD00002DE9F0414C4E88B0A2
:10483000002430684B4D688068884B4F39880840A9
:10484000800507D54FF6FF5030602878401C28704F
:10485000FFF7C2FA688839880840000401D5FEF7DE
:10486000A9FC688839884FF6FF380840400504D510
:10487000C6F800803D484068804769883888014014
:10488000890402D54DF6FF71316069880140C80482
:1048900005D54EF6FF7030600020FFF743FA6888B8
:1048A0003988084000050BD53148007810B1FFF772
:1048B000D3FD02E00220FFF735FA4FF2FF703060BF
:1048C000688839880840C00546D54FF6FF603060DB
:1048D0002348001D00684FF00002000438D56868C6
:1048E000401C68606868032833D91D48001F0168B0
:1048F00009072ED4016889B2A9601E494FEA0D0349
:1049000001EB8407D7F8007CBFB243F82470641C25
:10491000082CF5D3AC6844F00104AC60AC68A4B2D8
:104920000460AC6824F00104AC60AC68A4B204601C
:1049300030684005FCD5C6F80080002053F82040C0
:1049400001EB8006A4B2C6F8004C401C0828F5D341
:104950006A600720FFF7E6F908B0BDE8F0810000C3
:10496000445C004038000020340100209800002002
:104970001401002000500040FFF756BF05490020F9
:10498000086005494FF43F4008800249091F08604C
:1049900000207047445C00403401002070B500F0F6
:1049A0007F060D463046FEF757FF04463046FEF7B9
:1049B00043FF014622462846FFF7F2F8204670BD25
:1049C0002DE9F0410E4607460024084D0AE0395D06
:1049D0002846FFF7BBFE80212846FFF723FE00286C
:1049E000F9D0641CB442F2D3BDE8F0810044004029
:1049F000FEE70000094B10B5521C520803EB4101C1
:104A00000AD000BF10F8013B521E10F8014B43EAD8
:104A1000042321F8043BF5D110BD000000600040E4
:104A2000104A10B500211268212802D0202807D092
:104A300016E0107800F07F00212811D10A4908E023
:104A4000107800F07F00212800D10849084B202071
:104A5000187029B10020916150828847002010BD54
:104A6000022010BD280100208D4A0008014C0008DA
:104A70007C0000200149FFF7EDBB00009000002002
:104A80000149FFF7E7BB00008800002008B1044897
:104A90007047044908200968088200207047000018
:104AA000800000202801002005490968C9780429F0
:104AB00001D900207047034A02EBC101FFF7CABBCE
:104AC00028010020C800002009B9012801D90220CE
:104AD000704700207047000007490968097801F015
:104AE0007F01212903D1022803D0222801D00220EE
:104AF000704700207047000028010020334810B59F
:104B00000068334A00218172D2794272C17208462C
:104B1000FFF7E2F94FF400710020FFF7ABFA102124
:104B20000020FFF77DFA40210020FFF701FA8021E5
:104B30000020FFF757FA0020FEF712FC254890F8F6
:104B40002C100020FFF704FA0020FFF739FA0021AB
:104B50000120FFF78FFAC0210120FFF743FA20213F
:104B60000120FFF75DFA00210120FFF711FA4FF451
:104B7000C0610220FFF77EFA4FF480710220FFF738
:104B800031FA00210220FFF703FA20210220FFF76B
:104B900047FA00210320FFF76DFA4FF488710320D4
:104BA000FFF7C6F940210320FFF7D2F94FF4405137
:104BB0000320FFF7EDF900210320FFF731FA002071
:104BC000FFF792F904490120086010BD2801002078
:104BD000AE4C000898000020100100200348807AA5
:104BE000002802D00249052008607047040A00200E
:104BF00010010020014904200860704710010020C6
:104C000008B1044870470449082009680882002058
:104C100070470000800000202801002010B5044CDF
:104C20002078202803D1FFF79DFC0020207010BDC4
:104C30007C0000207047000010B5FEF72BFE0648F0
:104C4000002400688472FEF7DFFFFFF797FEFFF78E
:104C5000CBFC0248046010BD280100201001002098
:104C600002E008C8121F08C1002AFAD17047704735
:104C7000002001E001C1121F002AFBD170474FF450
:104C800040514FF00060FEF7F3FEFFF701FAFFF727
:104C900017FAFFF7A1FDFFF78BFDFEE712010002F7
:104CA0000200004083044057000201020301090290
:104CB0004300020100C032090400000102020100A9
:104CC000052400100105240100010424020205242A
:104CD000060001070582030800FF09040100020A1B
:104CE00000000007050302400000070581024000A4
:104CF00000040309042603530054004D00690063B7
:104D00000072006F0065006C006500630074007243
:104D1000006F006E0069006300730032035300549B
:104D2000004D00330032002000560069007200740C
:104D300000750061006C00200043004F004D002012
:104D40000050006F0072007400200020000000007E
:104D5000050A060B070707072000000440000008AB
:104D6000000404040404000B0C090A080628281790
:104D700028170100020010002000000000000200BF
:104D8000000004000800000004000000080000000B
:104D900004000000080000000800000008000000F7
:104DA00008000000010000080010000200040001DB
:104DB00001000000100000001000000010000000C2
:104DC00010000000100000000100000800100002A8
:104DD00000040001F44D00080000002094010000D0
:104DE00050310008984E0008940100208C0C0000FF
:104DF000704C00080118141A03531254124D123348
:104E00000221321379360C1C08F539040A11DD240D
:104E10005133C2011208139C4C3308121AAE0832E7
:104E2000431A390813FD4A1B081D081A35041A21B4
:104E30000C1AD9041AC9041A81041A75041AA9048F
:104E40004132401AF12432041AF5083226131B4D60
:104E50002A08BA221833201A1A046739880A194B0B
:104E6000A8191C4129920122380A030406080C10D3
:104E7000182030332C0203040425060708091A44BD
:104E8000931A4804140C02401A0804A908A9041132
:084E900019040A1010040000CF
:04000005080030F5CA
:00000001FF
